{
  "contractName": "CMS",
  "abi": [
    {
      "inputs": [
        {
          "internalType": "string",
          "name": "name_",
          "type": "string"
        },
        {
          "internalType": "string",
          "name": "symbol_",
          "type": "string"
        }
      ],
      "stateMutability": "nonpayable",
      "type": "constructor"
    },
    {
      "anonymous": false,
      "inputs": [
        {
          "indexed": true,
          "internalType": "address",
          "name": "owner",
          "type": "address"
        },
        {
          "indexed": true,
          "internalType": "address",
          "name": "spender",
          "type": "address"
        },
        {
          "indexed": false,
          "internalType": "uint256",
          "name": "value",
          "type": "uint256"
        }
      ],
      "name": "Approval",
      "type": "event"
    },
    {
      "anonymous": false,
      "inputs": [
        {
          "indexed": true,
          "internalType": "address",
          "name": "from",
          "type": "address"
        },
        {
          "indexed": true,
          "internalType": "address",
          "name": "to",
          "type": "address"
        },
        {
          "indexed": false,
          "internalType": "uint256",
          "name": "value",
          "type": "uint256"
        }
      ],
      "name": "Transfer",
      "type": "event"
    },
    {
      "inputs": [],
      "name": "admin",
      "outputs": [
        {
          "internalType": "address",
          "name": "",
          "type": "address"
        }
      ],
      "stateMutability": "view",
      "type": "function",
      "constant": true
    },
    {
      "inputs": [
        {
          "internalType": "address",
          "name": "recipient",
          "type": "address"
        }
      ],
      "name": "registerRecipient",
      "outputs": [],
      "stateMutability": "nonpayable",
      "type": "function"
    },
    {
      "inputs": [
        {
          "internalType": "uint256",
          "name": "reqAmount",
          "type": "uint256"
        },
        {
          "internalType": "int256",
          "name": "categ",
          "type": "int256"
        }
      ],
      "name": "raiseRequest",
      "outputs": [],
      "stateMutability": "nonpayable",
      "type": "function"
    },
    {
      "inputs": [
        {
          "internalType": "uint256",
          "name": "categ",
          "type": "uint256"
        }
      ],
      "name": "SelectCategoryToDonate",
      "outputs": [
        {
          "internalType": "address",
          "name": "",
          "type": "address"
        },
        {
          "internalType": "uint256",
          "name": "",
          "type": "uint256"
        }
      ],
      "stateMutability": "view",
      "type": "function",
      "constant": true
    },
    {
      "inputs": [
        {
          "internalType": "address",
          "name": "to",
          "type": "address"
        },
        {
          "internalType": "uint256",
          "name": "damount",
          "type": "uint256"
        },
        {
          "internalType": "uint256",
          "name": "category",
          "type": "uint256"
        }
      ],
      "name": "FundTransfer",
      "outputs": [],
      "stateMutability": "nonpayable",
      "type": "function"
    },
    {
      "inputs": [
        {
          "internalType": "address",
          "name": "recipient",
          "type": "address"
        }
      ],
      "name": "RemainingAmount",
      "outputs": [
        {
          "internalType": "uint256",
          "name": "",
          "type": "uint256"
        }
      ],
      "stateMutability": "view",
      "type": "function",
      "constant": true
    },
    {
      "inputs": [
        {
          "internalType": "address",
          "name": "recipient",
          "type": "address"
        }
      ],
      "name": "unRegisterRecipient",
      "outputs": [],
      "stateMutability": "nonpayable",
      "type": "function"
    },
    {
      "inputs": [
        {
          "internalType": "address",
          "name": "to",
          "type": "address"
        },
        {
          "internalType": "uint256",
          "name": "amount",
          "type": "uint256"
        }
      ],
      "name": "canMint",
      "outputs": [],
      "stateMutability": "nonpayable",
      "type": "function"
    },
    {
      "inputs": [],
      "name": "totalSupply",
      "outputs": [
        {
          "internalType": "uint256",
          "name": "",
          "type": "uint256"
        }
      ],
      "stateMutability": "view",
      "type": "function",
      "constant": true
    },
    {
      "inputs": [
        {
          "internalType": "address",
          "name": "account",
          "type": "address"
        }
      ],
      "name": "balanceOf",
      "outputs": [
        {
          "internalType": "uint256",
          "name": "",
          "type": "uint256"
        }
      ],
      "stateMutability": "view",
      "type": "function",
      "constant": true
    },
    {
      "inputs": [
        {
          "internalType": "address",
          "name": "recipient",
          "type": "address"
        },
        {
          "internalType": "uint256",
          "name": "amount",
          "type": "uint256"
        }
      ],
      "name": "transfer",
      "outputs": [
        {
          "internalType": "bool",
          "name": "",
          "type": "bool"
        }
      ],
      "stateMutability": "nonpayable",
      "type": "function"
    },
    {
      "inputs": [
        {
          "internalType": "address",
          "name": "recipient",
          "type": "address"
        },
        {
          "internalType": "uint256",
          "name": "amount",
          "type": "uint256"
        }
      ],
      "name": "mint",
      "outputs": [],
      "stateMutability": "nonpayable",
      "type": "function"
    },
    {
      "inputs": [
        {
          "internalType": "address",
          "name": "owner",
          "type": "address"
        },
        {
          "internalType": "address",
          "name": "spender",
          "type": "address"
        }
      ],
      "name": "allowance",
      "outputs": [
        {
          "internalType": "uint256",
          "name": "",
          "type": "uint256"
        }
      ],
      "stateMutability": "view",
      "type": "function",
      "constant": true
    },
    {
      "inputs": [
        {
          "internalType": "address",
          "name": "spender",
          "type": "address"
        },
        {
          "internalType": "uint256",
          "name": "amount",
          "type": "uint256"
        }
      ],
      "name": "approve",
      "outputs": [
        {
          "internalType": "bool",
          "name": "",
          "type": "bool"
        }
      ],
      "stateMutability": "nonpayable",
      "type": "function"
    },
    {
      "inputs": [
        {
          "internalType": "address",
          "name": "sender",
          "type": "address"
        },
        {
          "internalType": "address",
          "name": "recipient",
          "type": "address"
        },
        {
          "internalType": "uint256",
          "name": "amount",
          "type": "uint256"
        }
      ],
      "name": "transferFrom",
      "outputs": [
        {
          "internalType": "bool",
          "name": "",
          "type": "bool"
        }
      ],
      "stateMutability": "nonpayable",
      "type": "function"
    },
    {
      "inputs": [
        {
          "internalType": "address",
          "name": "spender",
          "type": "address"
        },
        {
          "internalType": "uint256",
          "name": "subtractedValue",
          "type": "uint256"
        }
      ],
      "name": "decreaseAllowance",
      "outputs": [
        {
          "internalType": "bool",
          "name": "",
          "type": "bool"
        }
      ],
      "stateMutability": "nonpayable",
      "type": "function"
    }
  ],
  "bytecode": "0x60806040523480156200001157600080fd5b506040516200273938038062002739833981810160405260408110156200003757600080fd5b81019080805160405193929190846401000000008211156200005857600080fd5b838201915060208201858111156200006f57600080fd5b82518660018202830111640100000000821117156200008d57600080fd5b8083526020830192505050908051906020019080838360005b83811015620000c3578082015181840152602081019050620000a6565b50505050905090810190601f168015620000f15780820380516001836020036101000a031916815260200191505b50604052602001805160405193929190846401000000008211156200011557600080fd5b838201915060208201858111156200012c57600080fd5b82518660018202830111640100000000821117156200014a57600080fd5b8083526020830192505050908051906020019080838360005b838110156200018057808201518184015260208101905062000163565b50505050905090810190601f168015620001ae5780820380516001836020036101000a031916815260200191505b506040525050508160039080519060200190620001cd929190620003e8565b508060049080519060200190620001e6929190620003e8565b50620002033369010f0cf064dd592000006200024c60201b60201c565b33600560006101000a81548173ffffffffffffffffffffffffffffffffffffffff021916908373ffffffffffffffffffffffffffffffffffffffff160217905550505062000497565b600073ffffffffffffffffffffffffffffffffffffffff168273ffffffffffffffffffffffffffffffffffffffff161415620002f0576040517f08c379a000000000000000000000000000000000000000000000000000000000815260040180806020018281038252601f8152602001807f45524332303a206d696e7420746f20746865207a65726f20616464726573730081525060200191505060405180910390fd5b6200030460008383620003de60201b60201c565b80600260008282540192505081905550806000808473ffffffffffffffffffffffffffffffffffffffff1673ffffffffffffffffffffffffffffffffffffffff168152602001908152602001600020600082825401925050819055508173ffffffffffffffffffffffffffffffffffffffff16600073ffffffffffffffffffffffffffffffffffffffff167fddf252ad1be2c89b69c2b068fc378daa952ba7f163c4a11628f55a4df523b3ef836040518082815260200191505060405180910390a3620003da60008383620003e360201b60201c565b5050565b505050565b505050565b828054600181600116156101000203166002900490600052602060002090601f016020900481019282601f106200042b57805160ff19168380011785556200045c565b828001600101855582156200045c579182015b828111156200045b5782518255916020019190600101906200043e565b5b5090506200046b91906200046f565b5090565b6200049491905b808211156200049057600081600090555060010162000476565b5090565b90565b61229280620004a76000396000f3fe608060405234801561001057600080fd5b50600436106101005760003560e01c806370a0823111610097578063b48dcf7111610066578063b48dcf7114610507578063dd62ed3e1461053f578063f07db596146105b7578063f851a4401461062c57610100565b806370a082311461039f578063a457c2d7146103f7578063a8badaa51461045d578063a9059cbb146104a157610100565b806320f40158116100d357806320f401581461021b57806323b872dd1461027357806340c10f19146102f95780634868204b1461034757610100565b80630270ba1614610105578063095ea7b3146101495780630d5e34a4146101af57806318160ddd146101fd575b600080fd5b6101476004803603602081101561011b57600080fd5b81019080803573ffffffffffffffffffffffffffffffffffffffff169060200190929190505050610676565b005b6101956004803603604081101561015f57600080fd5b81019080803573ffffffffffffffffffffffffffffffffffffffff16906020019092919080359060200190929190505050610832565b604051808215151515815260200191505060405180910390f35b6101fb600480360360408110156101c557600080fd5b81019080803573ffffffffffffffffffffffffffffffffffffffff16906020019092919080359060200190929190505050610849565b005b61020561091a565b6040518082815260200191505060405180910390f35b61025d6004803603602081101561023157600080fd5b81019080803573ffffffffffffffffffffffffffffffffffffffff169060200190929190505050610924565b6040518082815260200191505060405180910390f35b6102df6004803603606081101561028957600080fd5b81019080803573ffffffffffffffffffffffffffffffffffffffff169060200190929190803573ffffffffffffffffffffffffffffffffffffffff16906020019092919080359060200190929190505050610970565b604051808215151515815260200191505060405180910390f35b6103456004803603604081101561030f57600080fd5b81019080803573ffffffffffffffffffffffffffffffffffffffff16906020019092919080359060200190929190505050610a7e565b005b61039d6004803603606081101561035d57600080fd5b81019080803573ffffffffffffffffffffffffffffffffffffffff1690602001909291908035906020019092919080359060200190929190505050610a8c565b005b6103e1600480360360208110156103b557600080fd5b81019080803573ffffffffffffffffffffffffffffffffffffffff169060200190929190505050610cb5565b6040518082815260200191505060405180910390f35b6104436004803603604081101561040d57600080fd5b81019080803573ffffffffffffffffffffffffffffffffffffffff16906020019092919080359060200190929190505050610cfd565b604051808215151515815260200191505060405180910390f35b61049f6004803603602081101561047357600080fd5b81019080803573ffffffffffffffffffffffffffffffffffffffff169060200190929190505050610dfe565b005b6104ed600480360360408110156104b757600080fd5b81019080803573ffffffffffffffffffffffffffffffffffffffff16906020019092919080359060200190929190505050610fe8565b604051808215151515815260200191505060405180910390f35b61053d6004803603604081101561051d57600080fd5b810190808035906020019092919080359060200190929190505050610fff565b005b6105a16004803603604081101561055557600080fd5b81019080803573ffffffffffffffffffffffffffffffffffffffff169060200190929190803573ffffffffffffffffffffffffffffffffffffffff169060200190929190505050611378565b6040518082815260200191505060405180910390f35b6105e3600480360360208110156105cd57600080fd5b81019080803590602001909291905050506113ff565b604051808373ffffffffffffffffffffffffffffffffffffffff1673ffffffffffffffffffffffffffffffffffffffff1681526020018281526020019250505060405180910390f35b6106346116b3565b604051808273ffffffffffffffffffffffffffffffffffffffff1673ffffffffffffffffffffffffffffffffffffffff16815260200191505060405180910390f35b600560009054906101000a900473ffffffffffffffffffffffffffffffffffffffff1673ffffffffffffffffffffffffffffffffffffffff163373ffffffffffffffffffffffffffffffffffffffff1614610739576040517f08c379a00000000000000000000000000000000000000000000000000000000081526004018080602001828103825260168152602001807f4f6e6c79204f776e65722068617665206163636573730000000000000000000081525060200191505060405180910390fd5b6000600960008373ffffffffffffffffffffffffffffffffffffffff1673ffffffffffffffffffffffffffffffffffffffff16815260200190815260200160002060010154146107d4576040517f08c379a000000000000000000000000000000000000000000000000000000000815260040180806020018281038252602981526020018061217b6029913960400191505060405180910390fd5b6000600960008373ffffffffffffffffffffffffffffffffffffffff1673ffffffffffffffffffffffffffffffffffffffff16815260200190815260200160002060020160006101000a81548160ff02191690831515021790555050565b600061083f3384846116d9565b6001905092915050565b600560009054906101000a900473ffffffffffffffffffffffffffffffffffffffff1673ffffffffffffffffffffffffffffffffffffffff163373ffffffffffffffffffffffffffffffffffffffff161461090c576040517f08c379a00000000000000000000000000000000000000000000000000000000081526004018080602001828103825260158152602001807f6f6e6c792061646d696e2063616e20616363657373000000000000000000000081525060200191505060405180910390fd5b61091682826118d0565b5050565b6000600254905090565b6000600960008373ffffffffffffffffffffffffffffffffffffffff1673ffffffffffffffffffffffffffffffffffffffff168152602001908152602001600020600101549050919050565b600061097d848484611a51565b6000600160008673ffffffffffffffffffffffffffffffffffffffff1673ffffffffffffffffffffffffffffffffffffffff16815260200190815260200160002060006109c8611d0b565b73ffffffffffffffffffffffffffffffffffffffff1673ffffffffffffffffffffffffffffffffffffffff16815260200190815260200160002054905082811015610a5e576040517f08c379a00000000000000000000000000000000000000000000000000000000081526004018080602001828103825260288152602001806121a46028913960400191505060405180910390fd5b610a7285610a6a611d0b565b8584036116d9565b60019150509392505050565b610a8882826118d0565b5050565b81600960008573ffffffffffffffffffffffffffffffffffffffff1673ffffffffffffffffffffffffffffffffffffffff168152602001908152602001600020600101541015610b44576040517f08c379a00000000000000000000000000000000000000000000000000000000081526004018080602001828103825260208152602001807f706c6561736520636865636b2074686520646f6e6174696f6e20616d6f756e7481525060200191505060405180910390fd5b60048110610bba576040517f08c379a00000000000000000000000000000000000000000000000000000000081526004018080602001828103825260198152602001807f77652068617665206f6e6c7920332063617465676f726965730000000000000081525060200191505060405180910390fd5b6000610bc68484610fe8565b90506000600960008673ffffffffffffffffffffffffffffffffffffffff1673ffffffffffffffffffffffffffffffffffffffff168152602001908152602001600020600101549050838103600960008773ffffffffffffffffffffffffffffffffffffffff1673ffffffffffffffffffffffffffffffffffffffff168152602001908152602001600020600101819055506000600960008773ffffffffffffffffffffffffffffffffffffffff1673ffffffffffffffffffffffffffffffffffffffff168152602001908152602001600020600101541415610cae57610cad8386611d13565b5b5050505050565b60008060008373ffffffffffffffffffffffffffffffffffffffff1673ffffffffffffffffffffffffffffffffffffffff168152602001908152602001600020549050919050565b60008060016000610d0c611d0b565b73ffffffffffffffffffffffffffffffffffffffff1673ffffffffffffffffffffffffffffffffffffffff16815260200190815260200160002060008573ffffffffffffffffffffffffffffffffffffffff1673ffffffffffffffffffffffffffffffffffffffff16815260200190815260200160002054905082811015610ddf576040517f08c379a00000000000000000000000000000000000000000000000000000000081526004018080602001828103825260258152602001806122386025913960400191505060405180910390fd5b610df3610dea611d0b565b858584036116d9565b600191505092915050565b600560009054906101000a900473ffffffffffffffffffffffffffffffffffffffff1673ffffffffffffffffffffffffffffffffffffffff163373ffffffffffffffffffffffffffffffffffffffff1614610ec1576040517f08c379a00000000000000000000000000000000000000000000000000000000081526004018080602001828103825260168152602001807f4f6e6c79204f776e65722068617665206163636573730000000000000000000081525060200191505060405180910390fd5b80600960008373ffffffffffffffffffffffffffffffffffffffff1673ffffffffffffffffffffffffffffffffffffffff16815260200190815260200160002060000160006101000a81548173ffffffffffffffffffffffffffffffffffffffff021916908373ffffffffffffffffffffffffffffffffffffffff1602179055506000600960008373ffffffffffffffffffffffffffffffffffffffff1673ffffffffffffffffffffffffffffffffffffffff168152602001908152602001600020600101819055506001600960008373ffffffffffffffffffffffffffffffffffffffff1673ffffffffffffffffffffffffffffffffffffffff16815260200190815260200160002060020160006101000a81548160ff02191690831515021790555050565b6000610ff5338484611a51565b6001905092915050565b60011515600960003373ffffffffffffffffffffffffffffffffffffffff1673ffffffffffffffffffffffffffffffffffffffff16815260200190815260200160002060020160009054906101000a900460ff161515146110ab576040517f08c379a000000000000000000000000000000000000000000000000000000000815260040180806020018281038252602c815260200180612107602c913960400191505060405180910390fd5b60048112611104576040517f08c379a00000000000000000000000000000000000000000000000000000000081526004018080602001828103825260238152602001806122156023913960400191505060405180910390fd5b60018114156111bd576006339080600181540180825580915050600190039060005260206000200160009091909190916101000a81548173ffffffffffffffffffffffffffffffffffffffff021916908373ffffffffffffffffffffffffffffffffffffffff1602179055506001600960003373ffffffffffffffffffffffffffffffffffffffff1673ffffffffffffffffffffffffffffffffffffffff1681526020019081526020016000206003018190555061132d565b6002811415611276576007339080600181540180825580915050600190039060005260206000200160009091909190916101000a81548173ffffffffffffffffffffffffffffffffffffffff021916908373ffffffffffffffffffffffffffffffffffffffff1602179055506002600960003373ffffffffffffffffffffffffffffffffffffffff1673ffffffffffffffffffffffffffffffffffffffff1681526020019081526020016000206003018190555061132c565b600381141561132b576008339080600181540180825580915050600190039060005260206000200160009091909190916101000a81548173ffffffffffffffffffffffffffffffffffffffff021916908373ffffffffffffffffffffffffffffffffffffffff1602179055506003600960003373ffffffffffffffffffffffffffffffffffffffff1673ffffffffffffffffffffffffffffffffffffffff168152602001908152602001600020600301819055505b5b5b81600960003373ffffffffffffffffffffffffffffffffffffffff1673ffffffffffffffffffffffffffffffffffffffff168152602001908152602001600020600101819055505050565b6000600160008473ffffffffffffffffffffffffffffffffffffffff1673ffffffffffffffffffffffffffffffffffffffff16815260200190815260200160002060008373ffffffffffffffffffffffffffffffffffffffff1673ffffffffffffffffffffffffffffffffffffffff16815260200190815260200160002054905092915050565b6000806004831061145b576040517f08c379a00000000000000000000000000000000000000000000000000000000081526004018080602001828103825260238152602001806122156023913960400191505060405180910390fd5b600183141561152157600660008154811061147257fe5b9060005260206000200160009054906101000a900473ffffffffffffffffffffffffffffffffffffffff166009600060066000815481106114af57fe5b9060005260206000200160009054906101000a900473ffffffffffffffffffffffffffffffffffffffff1673ffffffffffffffffffffffffffffffffffffffff1673ffffffffffffffffffffffffffffffffffffffff16815260200190815260200160002060010154915091506116ae565b60028314156115e757600760008154811061153857fe5b9060005260206000200160009054906101000a900473ffffffffffffffffffffffffffffffffffffffff1660096000600760008154811061157557fe5b9060005260206000200160009054906101000a900473ffffffffffffffffffffffffffffffffffffffff1673ffffffffffffffffffffffffffffffffffffffff1673ffffffffffffffffffffffffffffffffffffffff16815260200190815260200160002060010154915091506116ae565b60038314156116ad5760086000815481106115fe57fe5b9060005260206000200160009054906101000a900473ffffffffffffffffffffffffffffffffffffffff1660096000600860008154811061163b57fe5b9060005260206000200160009054906101000a900473ffffffffffffffffffffffffffffffffffffffff1673ffffffffffffffffffffffffffffffffffffffff1673ffffffffffffffffffffffffffffffffffffffff16815260200190815260200160002060010154915091506116ae565b5b915091565b600560009054906101000a900473ffffffffffffffffffffffffffffffffffffffff1681565b600073ffffffffffffffffffffffffffffffffffffffff168373ffffffffffffffffffffffffffffffffffffffff16141561175f576040517f08c379a00000000000000000000000000000000000000000000000000000000081526004018080602001828103825260248152602001806121f16024913960400191505060405180910390fd5b600073ffffffffffffffffffffffffffffffffffffffff168273ffffffffffffffffffffffffffffffffffffffff1614156117e5576040517f08c379a00000000000000000000000000000000000000000000000000000000081526004018080602001828103825260228152602001806121336022913960400191505060405180910390fd5b80600160008573ffffffffffffffffffffffffffffffffffffffff1673ffffffffffffffffffffffffffffffffffffffff16815260200190815260200160002060008473ffffffffffffffffffffffffffffffffffffffff1673ffffffffffffffffffffffffffffffffffffffff168152602001908152602001600020819055508173ffffffffffffffffffffffffffffffffffffffff168373ffffffffffffffffffffffffffffffffffffffff167f8c5be1e5ebec7d5bd14f71427d1e84f3dd0314c0f7b2291e5b200ac8c7c3b925836040518082815260200191505060405180910390a3505050565b600073ffffffffffffffffffffffffffffffffffffffff168273ffffffffffffffffffffffffffffffffffffffff161415611973576040517f08c379a000000000000000000000000000000000000000000000000000000000815260040180806020018281038252601f8152602001807f45524332303a206d696e7420746f20746865207a65726f20616464726573730081525060200191505060405180910390fd5b61197f600083836120d9565b80600260008282540192505081905550806000808473ffffffffffffffffffffffffffffffffffffffff1673ffffffffffffffffffffffffffffffffffffffff168152602001908152602001600020600082825401925050819055508173ffffffffffffffffffffffffffffffffffffffff16600073ffffffffffffffffffffffffffffffffffffffff167fddf252ad1be2c89b69c2b068fc378daa952ba7f163c4a11628f55a4df523b3ef836040518082815260200191505060405180910390a3611a4d600083836120de565b5050565b600073ffffffffffffffffffffffffffffffffffffffff168373ffffffffffffffffffffffffffffffffffffffff161415611ad7576040517f08c379a00000000000000000000000000000000000000000000000000000000081526004018080602001828103825260258152602001806121cc6025913960400191505060405180910390fd5b600073ffffffffffffffffffffffffffffffffffffffff168273ffffffffffffffffffffffffffffffffffffffff161415611b5d576040517f08c379a00000000000000000000000000000000000000000000000000000000081526004018080602001828103825260238152602001806120e46023913960400191505060405180910390fd5b611b688383836120d9565b60008060008573ffffffffffffffffffffffffffffffffffffffff1673ffffffffffffffffffffffffffffffffffffffff16815260200190815260200160002054905081811015611c04576040517f08c379a00000000000000000000000000000000000000000000000000000000081526004018080602001828103825260268152602001806121556026913960400191505060405180910390fd5b8181036000808673ffffffffffffffffffffffffffffffffffffffff1673ffffffffffffffffffffffffffffffffffffffff16815260200190815260200160002081905550816000808573ffffffffffffffffffffffffffffffffffffffff1673ffffffffffffffffffffffffffffffffffffffff168152602001908152602001600020600082825401925050819055508273ffffffffffffffffffffffffffffffffffffffff168473ffffffffffffffffffffffffffffffffffffffff167fddf252ad1be2c89b69c2b068fc378daa952ba7f163c4a11628f55a4df523b3ef846040518082815260200191505060405180910390a3611d058484846120de565b50505050565b600033905090565b6000600960008373ffffffffffffffffffffffffffffffffffffffff1673ffffffffffffffffffffffffffffffffffffffff1681526020019081526020016000206001015414611dcb576040517f08c379a00000000000000000000000000000000000000000000000000000000081526004018080602001828103825260208152602001807f52657175657374656420616d6f756e74207374696c6c2072656d61696e696e6781525060200191505060405180910390fd5b6001821415611ecf5760008090505b600160068054905003811015611e875760066001820181548110611dfa57fe5b9060005260206000200160009054906101000a900473ffffffffffffffffffffffffffffffffffffffff1660068281548110611e3257fe5b9060005260206000200160006101000a81548173ffffffffffffffffffffffffffffffffffffffff021916908373ffffffffffffffffffffffffffffffffffffffff1602179055508080600101915050611dda565b50600660016006805490500381548110611e9d57fe5b9060005260206000200160006101000a81549073ffffffffffffffffffffffffffffffffffffffff02191690556120d5565b6002821415611fd35760008090505b600160078054905003811015611f8b5760076001820181548110611efe57fe5b9060005260206000200160009054906101000a900473ffffffffffffffffffffffffffffffffffffffff1660078281548110611f3657fe5b9060005260206000200160006101000a81548173ffffffffffffffffffffffffffffffffffffffff021916908373ffffffffffffffffffffffffffffffffffffffff1602179055508080600101915050611ede565b50600760016007805490500381548110611fa157fe5b9060005260206000200160006101000a81549073ffffffffffffffffffffffffffffffffffffffff02191690556120d4565b60038214156120d35760008090505b60016008805490500381101561208f576008600182018154811061200257fe5b9060005260206000200160009054906101000a900473ffffffffffffffffffffffffffffffffffffffff166008828154811061203a57fe5b9060005260206000200160006101000a81548173ffffffffffffffffffffffffffffffffffffffff021916908373ffffffffffffffffffffffffffffffffffffffff1602179055508080600101915050611fe2565b506008600160088054905003815481106120a557fe5b9060005260206000200160006101000a81549073ffffffffffffffffffffffffffffffffffffffff02191690555b5b5b5050565b505050565b50505056fe45524332303a207472616e7366657220746f20746865207a65726f20616464726573736f6e6c79205265676973746572656420726563697069656e74732063616e207261697365207265717565737445524332303a20617070726f766520746f20746865207a65726f206164647265737345524332303a207472616e7366657220616d6f756e7420657863656564732062616c616e6365446f6e6174696f6e20616d6f756e74206973206e6f7420646f6e6174656420636f6d706c6574656c7945524332303a207472616e7366657220616d6f756e74206578636565647320616c6c6f77616e636545524332303a207472616e736665722066726f6d20746865207a65726f206164647265737345524332303a20617070726f76652066726f6d20746865207a65726f206164647265737377652068617665206f6e6c7920332063617465676f7269657320746f2073656c65637445524332303a2064656372656173656420616c6c6f77616e63652062656c6f77207a65726fa2646970667358221220ab50d8e0c47a49c8e8ff32172cc8983c11ed7e901ac05fc6a05c85f367f3228b64736f6c63430006080033",
  "immutableReferences": {},
  "source": "// SPDX-License-Identifier: MIT\n// OpenZeppelin Contracts v4.3.2 (token/ERC20/ERC20.sol)\n\npragma solidity >=0.5.16;\n\ninterface IERC20 {\n    function totalSupply() external view returns (uint256);\n\n    function balanceOf(address account) external view returns (uint256);\n\n    function transfer(address recipient, uint256 amount)\n        external\n        returns (bool);\n\n    function allowance(address owner, address spender)\n        external\n        view\n        returns (uint256);\n\n    function approve(address spender, uint256 amount) external returns (bool);\n\n    function transferFrom(\n        address sender,\n        address recipient,\n        uint256 amount\n    ) external returns (bool);\n\n    event Transfer(address indexed from, address indexed to, uint256 value);\n\n    event Approval(\n        address indexed owner,\n        address indexed spender,\n        uint256 value\n    );\n}\n\ncontract CMS is IERC20 {\n    mapping(address => uint256) private _balances;\n\n    mapping(address => mapping(address => uint256)) private _allowances;\n\n    uint256 private _totalSupply;\n\n    string private _name;\n    string private _symbol;\n\n    address public admin;\n\n    struct Recipient {\n        address rAddress;\n        uint256 amountNeeded;\n        bool isRegistered;\n        int256 category;\n    }\n\n    address[] category1;\n    address[] category2;\n    address[] category3;\n\n    // struct Donor {\n    //   // bytes32 dname;\n    //     address dAddress;\n    //     bool isRegistered;\n    // }\n\n    mapping(address => Recipient) private recipients;\n\n    modifier isOwner() {\n        require(msg.sender == admin, \"Only Owner have access\");\n        _;\n    }\n\n    function registerRecipient(address recipient) public isOwner {\n        recipients[recipient].rAddress = recipient;\n        recipients[recipient].amountNeeded = 0;\n        recipients[recipient].isRegistered = true;\n    }\n\n    function raiseRequest(uint256 reqAmount, int256 categ) public {\n        require(\n            recipients[msg.sender].isRegistered == true,\n            \"only Registered recipients can raise request\"\n        );\n        require(categ < 4, \"we have only 3 categories to select\");\n        if (categ == 1) {\n            category1.push(msg.sender);\n            recipients[msg.sender].category = 1;\n        } else if (categ == 2) {\n            category2.push(msg.sender);\n            recipients[msg.sender].category = 2;\n        } else if (categ == 3) {\n            category3.push(msg.sender);\n            recipients[msg.sender].category = 3;\n        }\n\n        recipients[msg.sender].amountNeeded = reqAmount;\n    }\n\n    function SelectCategoryToDonate(uint256 categ)\n        public\n        view\n        returns (address, uint256)\n    {\n        require(categ < 4, \"we have only 3 categories to select\");\n        if (categ == 1) {\n            return (category1[0], recipients[category1[0]].amountNeeded);\n        } else if (categ == 2) {\n            return (category2[0], recipients[category2[0]].amountNeeded);\n        } else if (categ == 3) {\n            return (category3[0], recipients[category3[0]].amountNeeded);\n        }\n    }\n\n    function FundTransfer(\n        address to,\n        uint256 damount,\n        uint256 category\n    ) public {\n        require(\n            recipients[to].amountNeeded >= damount,\n            \"please check the donation amount\"\n        );\n        require(category < 4, \"we have only 3 categories\");\n        bool res = transfer(to, damount);\n        uint256 totamountneeded = recipients[to].amountNeeded;\n        recipients[to].amountNeeded = totamountneeded - damount;\n        if (recipients[to].amountNeeded == 0) {\n            deleteFormArray(category, to);\n        }\n    }\n\n    function deleteFormArray(uint256 catego, address to) private {\n        require(\n            recipients[to].amountNeeded == 0,\n            \"Requested amount still remaining\"\n        );\n        //string memory arrayNeeded = \"category1\";\n        if (catego == 1) {\n            for (uint256 i = 0; i < category1.length - 1; i++) {\n                category1[i] = category1[i + 1];\n            }\n            delete category1[category1.length - 1];\n        } else if (catego == 2) {\n            for (uint256 i = 0; i < category2.length - 1; i++) {\n                category2[i] = category2[i + 1];\n            }\n            delete category2[category2.length - 1];\n        } else if (catego == 3) {\n            for (uint256 i = 0; i < category3.length - 1; i++) {\n                category3[i] = category3[i + 1];\n            }\n            delete category3[category3.length - 1];\n        }\n\n        //category1.length--;\n    }\n\n    function RemainingAmount(address recipient) public view returns (uint256) {\n        return recipients[recipient].amountNeeded;\n    }\n\n    function unRegisterRecipient(address recipient) public isOwner {\n        require(\n            recipients[recipient].amountNeeded == 0,\n            \"Donation amount is not donated completely\"\n        );\n        //recipients[recipient].amountNeeded = 0;\n        recipients[recipient].isRegistered = false;\n    }\n\n    constructor(string memory name_, string memory symbol_) public {\n        _name = name_;\n        _symbol = symbol_;\n        _mint(msg.sender, 5000 * 10**18);\n        admin = msg.sender;\n    }\n\n    function canMint(address to, uint256 amount) external {\n        require(msg.sender == admin, \"only admin can access\");\n        _mint(to, amount);\n    }\n\n    function _msgSender() internal view virtual returns (address) {\n        return msg.sender;\n    }\n\n    function totalSupply() public view virtual override returns (uint256) {\n        return _totalSupply;\n    }\n\n    function balanceOf(address account)\n        public\n        view\n        virtual\n        override\n        returns (uint256)\n    {\n        return _balances[account];\n    }\n\n    function transfer(address recipient, uint256 amount)\n        public\n        virtual\n        override\n        returns (bool)\n    {\n        _transfer(msg.sender, recipient, amount);\n        return true;\n    }\n\n    function mint(address recipient, uint256 amount) public virtual {\n        _mint(recipient, amount);\n    }\n\n    function allowance(address owner, address spender)\n        public\n        view\n        virtual\n        override\n        returns (uint256)\n    {\n        return _allowances[owner][spender];\n    }\n\n    function approve(address spender, uint256 amount)\n        public\n        virtual\n        override\n        returns (bool)\n    {\n        _approve(msg.sender, spender, amount);\n        return true;\n    }\n\n    function transferFrom(\n        address sender,\n        address recipient,\n        uint256 amount\n    ) public virtual override returns (bool) {\n        _transfer(sender, recipient, amount);\n\n        uint256 currentAllowance = _allowances[sender][_msgSender()];\n        require(\n            currentAllowance >= amount,\n            \"ERC20: transfer amount exceeds allowance\"\n        );\n\n        _approve(sender, _msgSender(), currentAllowance - amount);\n\n        return true;\n    }\n\n    function decreaseAllowance(address spender, uint256 subtractedValue)\n        public\n        virtual\n        returns (bool)\n    {\n        uint256 currentAllowance = _allowances[_msgSender()][spender];\n        require(\n            currentAllowance >= subtractedValue,\n            \"ERC20: decreased allowance below zero\"\n        );\n        _approve(_msgSender(), spender, currentAllowance - subtractedValue);\n\n        return true;\n    }\n\n    function _transfer(\n        address sender,\n        address recipient,\n        uint256 amount\n    ) internal virtual {\n        require(sender != address(0), \"ERC20: transfer from the zero address\");\n        require(recipient != address(0), \"ERC20: transfer to the zero address\");\n\n        _beforeTokenTransfer(sender, recipient, amount);\n\n        uint256 senderBalance = _balances[sender];\n        require(\n            senderBalance >= amount,\n            \"ERC20: transfer amount exceeds balance\"\n        );\n\n        _balances[sender] = senderBalance - amount;\n        _balances[recipient] += amount;\n\n        emit Transfer(sender, recipient, amount);\n\n        _afterTokenTransfer(sender, recipient, amount);\n    }\n\n    function _beforeTokenTransfer(\n        address from,\n        address to,\n        uint256 amount\n    ) internal virtual {}\n\n    function _afterTokenTransfer(\n        address from,\n        address to,\n        uint256 amount\n    ) internal virtual {}\n\n    function _mint(address account, uint256 amount) internal virtual {\n        require(account != address(0), \"ERC20: mint to the zero address\");\n\n        _beforeTokenTransfer(address(0), account, amount);\n\n        _totalSupply += amount;\n        _balances[account] += amount;\n        emit Transfer(address(0), account, amount);\n\n        _afterTokenTransfer(address(0), account, amount);\n    }\n\n    /**\n     * @dev Destroys `amount` tokens from `account`, reducing the\n     * total supply.\n     *\n     * Emits a {Transfer} event with `to` set to the zero address.\n     *\n     * Requirements:\n     *\n     * - `account` cannot be the zero address.\n     * - `account` must have at least `amount` tokens.\n     */\n    function _burn(address account, uint256 amount) internal virtual {\n        require(account != address(0), \"ERC20: burn from the zero address\");\n\n        _beforeTokenTransfer(account, address(0), amount);\n\n        uint256 accountBalance = _balances[account];\n        require(accountBalance >= amount, \"ERC20: burn amount exceeds balance\");\n\n        _balances[account] = accountBalance - amount;\n\n        _totalSupply -= amount;\n\n        emit Transfer(account, address(0), amount);\n\n        _afterTokenTransfer(account, address(0), amount);\n    }\n\n    /**\n     * @dev Sets `amount` as the allowance of `spender` over the `owner` s tokens.\n     *\n     * This internal function is equivalent to `approve`, and can be used to\n     * e.g. set automatic allowances for certain subsystems, etc.\n     *\n     * Emits an {Approval} event.\n     *\n     * Requirements:\n     *\n     * - `owner` cannot be the zero address.\n     * - `spender` cannot be the zero address.\n     */\n    function _approve(\n        address owner,\n        address spender,\n        uint256 amount\n    ) internal virtual {\n        require(owner != address(0), \"ERC20: approve from the zero address\");\n        require(spender != address(0), \"ERC20: approve to the zero address\");\n\n        _allowances[owner][spender] = amount;\n        emit Approval(owner, spender, amount);\n    }\n}\n",
  "sourcePath": "/Users/shivani/Desktop/cms-Dapp/cms-contract/contracts/CMS.sol",
  "compiler": {
    "name": "solc",
    "version": "0.6.8+commit.0bbfe453.Emscripten.clang"
  },
  "schemaVersion": "3.4.3",
  "updatedAt": "2021-12-01T23:35:23.408Z",
  "networkType": "ethereum",
  "devdoc": {
    "methods": {}
  },
  "userdoc": {
    "methods": {}
  }
}